:100000000C9463000C948B000C948B000C944803AC
:100010000C9448030C9448030C948B000C948B00B4
:100020000C948B000C948B000C948B000C948B0024
:100030000C948B000C948B000C948B000C948B0014
:100040000C94A6020C948B000C9416030C94F002F2
:100050000C948B000C948B000C948B000C948B00F4
:100060000C948B000C948B0000000008000201002F
:100070000003040700000000000000000000000072
:1000800023002600290000000000240027002A0089
:1000900000000000250028002B00040404040404D0
:1000A0000404020202020202030303030303010227
:1000B00004081020408001020408102001020408F6
:1000C00010200C04D30611241FBECFEFD8E0DEBFF2
:1000D000CDBF24E0A4E2B1E001C01D92A639B20771
:1000E000E1F711E0A0E0B1E0E4E0FEE002C005903D
:1000F0000D92A432B107D9F710E0C2E6D0E004C0F7
:100100002197FE010E94EF06C136D107C9F70E9470
:10011000F5040C94F5060C9400000895AF92BF927C
:10012000CF92DF92EF92FF920F931F93CF93DF93C3
:100130006C017B018B01040F151FEB015E01AE18F2
:10014000BF08C017D10759F06991D601ED91FC9114
:100150000190F081E02DC6010995892B79F7C50141
:10016000DF91CF911F910F91FF90EF90DF90CF9093
:10017000BF90AF900895FC01538D448D252F30E042
:10018000842F90E0821B930B541710F0CF960895A4
:1001900001970895FC01918D828D981761F0A28DD1
:1001A000AE0FBF2FB11D5D968C91928D9F5F9F7397
:1001B000928F90E008958FEF9FEF0895CF92DF9296
:1001C000EF92FF920F931F93CF93DF937C018C01EB
:1001D000060F171FEC016E01CE18DF080C171D0764
:1001E00009F43DC02FB7F8948091D6039091D703BE
:1001F000A091D803B091D9032FBF8093E2039093CD
:10020000E303A093E403B093E5038AED93E00E9437
:10021000CA0097FF2EC02FB7F8948091D603909113
:10022000D703A091D803B091D9032FBF4091E20327
:100230005091E3036091E4037091E503841B950BF7
:10024000A60BB70B4091DE035091DF036091E003F2
:100250007091E10384179507A607B707B0F2C601AE
:10026000DF91CF911F910F91FF90EF90DF90CF9092
:1002700008958993B0CFFC01918D828D981731F04C
:10028000828DE80FF11D858D90E008958FEF9FEF2F
:100290000895FC01918D228D892F90E0805C9F4F05
:1002A000821B91098F73992708958AED93E00E942C
:1002B000490121E0892B09F420E0822F089580E094
:1002C00090E0892B29F00E94550181110C940000C7
:1002D0000895FC01A48DA80FB92FB11DA35ABF4FDB
:1002E0002C91848D90E001968F739927848FA68935
:1002F000B7892C93A089B1898C91837080648C9389
:10030000938D848D981306C00288F389E02D808137
:100310008F7D80830895EF92FF920F931F93CF9369
:10032000DF93EC0181E0888F9B8D8C8D98131AC030
:10033000E889F989808185FF15C09FB7F894EE8917
:10034000FF896083E889F989808183708064808374
:100350009FBF81E090E0DF91CF911F910F91FF90BF
:10036000EF900895F62E0B8D10E00F5F1F4F0F7367
:100370001127E02E8C8D8E110CC00FB607FCFACF22
:10038000E889F989808185FFF5CFCE010E94690156
:10039000F1CFEB8DEC0FFD2FF11DE35AFF4FF082F3
:1003A0009FB7F8940B8FEA89FB8980818062CFCF59
:1003B000CF93DF93EC01888D8823B9F0AA89BB899C
:1003C000E889F9898C9185FD03C0808186FD0DC087
:1003D0000FB607FCF7CF8C9185FFF2CF808185FFA8
:1003E000EDCFCE010E946901E9CFDF91CF91089551
:1003F00020916601309167012817390771F49091B7
:10040000640180916501981741F0E0916401F0E08A
:10041000EC5DFE4F808190E008958FEF9FEF08958F
:10042000EF92FF920F931F93CF93DF93DC015C96C3
:10043000ED90FC905D97E114F10479F481E090E097
:1004400013969C938E93129790E080E0DF91CF916A
:100450001F910F91FF90EF9008955196ED91FC91AF
:10046000529750968C915097982F90950FB75E9613
:100470002C915E97122F127021FD6095F8942081C7
:10048000112319F1282B2083E7012197F1F728E0A8
:10049000462F50E0308160FF1AC0382B3083E701CF
:1004A0002197F1F7BA0175956795215089F71123C6
:1004B00081F08081892380830FBF5C968D919C9110
:1004C0000197F1F781E090E0C1CF2923DCCF3923F8
:1004D000E5CF9081892BEFCF2091660130916701A4
:1004E0002817390761F4809165012091640190E03B
:1004F000805C9F4F821B91098F739927089590E02C
:1005000080E008952091660130916701281739072E
:10051000B9F49091640180916501981789F0E09198
:100520006401F0E0EC5DFE4F80812091640130E0D9
:100530002F5F3F4F2F7333272093640190E008957E
:100540008FEF9FEF089590E080E008951F920F9243
:100550000FB60F9211242F933F938F939F93AF93D6
:10056000BF938091D6039091D703A091D803B09107
:10057000D9033091D50323E0230F2D3758F5019689
:10058000A11DB11D2093D5038093D6039093D7036B
:10059000A093D803B093D9038091D1039091D20353
:1005A000A091D303B091D4030196A11DB11D8093F6
:1005B000D1039093D203A093D303B093D403BF91FC
:1005C000AF919F918F913F912F910F900FBE0F9000
:1005D0001F90189526E8230F0296A11DB11DD2CFBA
:1005E0001F920F920FB60F9211242F933F934F93A8
:1005F0005F936F937F938F939F93AF93BF93EF938B
:10060000FF938AED93E00E946901FF91EF91BF9102
:10061000AF919F918F917F916F915F914F913F919A
:100620002F910F900FBE0F901F9018951F920F9251
:100630000FB60F9211242F938F939F93EF93FF93F5
:10064000E091EA03F091EB038081E091F003F091F7
:10065000F10382FD1BC090818091F3038F5F8F7344
:100660002091F403821741F0E091F303F0E0E652A9
:10067000FC4F958F8093F303FF91EF919F918F91A2
:100680002F910F900FBE0F901F9018958081F4CF7F
:100690001F920F920FB60F9211242F933F934F93F7
:1006A0005F936F937F938F939F93AF93BF93EF93DA
:1006B000FF93E0916601F0916701309749F0A685BC
:1006C000B7858585968D91FF14C09C918923A1F4EF
:1006D000FF91EF91BF91AF919F918F917F916F911A
:1006E0005F914F913F912F910F900FBE0F901F90F0
:1006F00018959C91892361F7A389B4899C91858978
:10070000809589238C93868997890197F1F7608D6D
:10071000718DA685B785558538E020E0CB0101971E
:10072000F1F7822F90E095958795282F4C914523DE
:1007300009F02068315091F7868D81FD20958091D8
:10074000650190E001968F73992730916401381705
:1007500099F0A0916501B0E0AC5DBE4F2C93809301
:100760006501828D938D0197F1F7A389B4898C91EE
:100770009589892B8C93ACCF868D8160868FF1CF44
:1007800090E0FC01E859FF4F2491FC01E255FF4F36
:100790003491FC01E656FF4FE491EE23C9F0222389
:1007A00039F0233001F1A8F4213019F1223029F178
:1007B000F0E0EE0FFF1FE057FF4FA591B4918FB708
:1007C000F894EC91611126C030953E233C938FBF85
:1007D00008952730A9F02830C9F0243049F78091D6
:1007E00080008F7D03C0809180008F778093800090
:1007F000DFCF84B58F7784BDDBCF84B58F7DFBCF12
:100800008091B0008F778093B000D2CF8091B000FC
:100810008F7DF9CF3E2BDACF0F931F93CF93DF93CA
:100820001092DD031092DC0388EE93E0A0E0B0E0CC
:100830008093DE039093DF03A093E003B093E10382
:1008400024E031E03093DB032093DA0325EC30E041
:100850003093E7032093E60324EC30E03093E90380
:100860002093E80320EC30E03093EB032093EA037D
:1008700021EC30E03093ED032093EC0322EC30E0E8
:100880003093EF032093EE0326EC30E03093F10336
:100890002093F0031092F3031092F4031092F503E7
:1008A0001092F60310927A041092790480937B04DC
:1008B00090937C04A0937D04B0937E0486E191E044
:1008C000909378048093770410928E0410928D0494
:1008D0001092900410928F0410929204109291043E
:1008E0001092940410929304609195046E7F6D7F32
:1008F000609395046695617081E0682789E00E94A5
:10090000C00347EB50E0FA01649183EA90E0FC01F8
:100910002491222399F030E0220F331FF901EA5786
:10092000FF4FA591B491F901E057FF4F2591349104
:100930002FB7F8943C91632B6C932FBFFA0144912D
:1009400040938704FC018491E82FF0E0EE0FFF1F35
:10095000E057FF4F85919491909389048093880488
:1009600006EB10E0F8012491C2EAD0E0FE01849188
:100970008823C9F090E0880F991FFC01EA57FF4FC8
:10098000A591B491FC01E057FF4F459154913FB7B9
:10099000F8949C91822F809598239C93FA019081E2
:1009A000892380833FBF8091950481FD04C061E06D
:1009B00088E00E94C00388E080938304F8010491DA
:1009C00000938404FE01C491EC2FF0E0EE0FFF1FB2
:1009D000E458FF4F85919491909386048093850409
:1009E000DF91CF911F910F910895789484B5826023
:1009F00084BD84B5816084BD85B5826085BD85B5C3
:100A0000816085BD80916E00816080936E00109240
:100A100081008091810082608093810080918100BB
:100A2000816080938100809180008160809380004C
:100A30008091B10084608093B1008091B0008160AA
:100A40008093B00080917A00846080937A008091D6
:100A50007A00826080937A0080917A00816080932E
:100A60007A0080917A00806880937A001092C100A9
:100A7000E091EA03F091EB0382E08083E091E603EA
:100A8000F091E7031082E091E803F091E90380E13F
:100A900080831092F203E091EE03F091EF0386E081
:100AA0008083E091EC03F091ED038081806180838D
:100AB000E091EC03F091ED03808188608083E09108
:100AC000EC03F091ED03808180688083E091EC037A
:100AD000F091ED0380818F7D8083109292041092BB
:100AE00091041092900410928F0410928E04109230
:100AF0008D048DE991E090939404809393049091F8
:100B00008304963108F047C02DEB30E030938E041B
:100B100020938D042BE931E03093900420938F04CF
:100B20002CE231E0309392042093910420916800EC
:100B300084E0983048F031E09E3008F430E081E005
:100B400001C0880F3A95EAF7822B809368002DE662
:100B500030E0983050F02BE630E09E3030F02CE65C
:100B600030E0963110F030E020E030938B04209399
:100B70008A04292F30E0983008F09BC081E001C042
:100B8000880F9A95EAF780938C0480919304909152
:100B900094040197F1F78091910490919204892B2C
:100BA00049F1E0916601F091670124E0E737F2072F
:100BB00009F1309739F0A389B4899C918589809592
:100BC00089238C93809195048E7F80939504109255
:100BD00065011092640187E794E090936701809328
:100BE0006601E0918A04F0918B04808190918C04DD
:100BF000892B808320E0E22E20E0F22E8AED93E024
:100C00000E94490102970CF4C2C069E070E08BE6D3
:100C100091E00E94DE008AED93E00E94CA00182F46
:100C20008AED93E00E94CA00D12F20E0C22F6E010E
:100C3000C82AD92AD0927401C0927501B60186E7FC
:100C400091E00E94DE008AED93E00E94CA008601D6
:100C5000045F1F4FF801E559FE4F80838BE0C80EFB
:100C6000D11CE6E7F1E04FEF5FEFBA01CF018B5601
:100C700091408C159D0550F58191482788E04A01E7
:100C80005B0191E089229924AA24BB24769567957B
:100C90005795479589288A288B2841F020E24227DA
:100CA00023E8522728EB62272DEE7227815039F76F
:100CB000DDCF9E3040F42850310981E001C0880F1B
:100CC0002A95EAF760CF2E503109F7CF70936F0164
:100CD00060937001509371014093720110926A0108
:100CE00080916A0181114EC0A8016BE671E087E72F
:100CF00094E00E948E002FB7F8948091D6039091D3
:100D0000D703A091D803B091D9032FBF9093690165
:100D10008093680187E794E00E946C02892B01F7B9
:100D20002FB7F8948091D6039091D703A091D80360
:100D3000B091D9032FBFC0906801D0906901A6017E
:100D40000D2C000C660B770B841B950BA60BB70BB9
:100D500081319742A105B10508F4C2CF87E794E03D
:100D60000E948202813019F480936A01B9CF8230E7
:100D700009F4B6CF8FEFC81AD80AD0926901C09291
:100D80006801C8CF61E08AED93E00E948B01E11415
:100D9000F10409F433CF0E945501882309F42ECFC2
:100DA0000E9400002BCF86E191E09093780480931D
:100DB000770480916601909167018757944071F4A0
:100DC000E0918A04F0918B04908180918C0480954D
:100DD0008923808310926701109266010895EE0FB7
:100DE000FF1F0590F491E02D099410E0C2E6D0E0D9
:100DF00004C0FE010E94EF062196C336D107C9F751
:040E0000F894FFCF94
:100E0400000000008B018E00BB00D8014901CA001C
:100E14003B010000000010028E00A3028D006C0252
:040E24008202F8014D
:00000001FF
