:100000000C9463000C948B000C948B000C942905C9
:100010000C9429050C9429050C948B000C948B00EE
:100020000C948B000C948B000C948B000C948B0024
:100030000C948B000C948B000C948B000C948B0014
:100040000C9487040C948B000C94F7040C94D1044A
:100050000C948B000C948B000C948B000C948B00F4
:100060000C948B000C948B000000000024002700EF
:100070002A0000000008000201000003040700003D
:1000800000000000000000000000230026002900FE
:1000900000000000250028002B00040404040404D0
:1000A0000404020202020202030303030303010227
:1000B00004081020408001020408102001020408F6
:1000C0001020A105490811241FBECFEFD8E0DEBFE4
:1000D000CDBF25E0A0E9B1E001C01D92A231B20779
:1000E000E1F711E0A0E0B1E0E0EFF0E102C005903F
:1000F0000D92A039B107D9F710E0C2E6D0E004C0F4
:100100002197FE010E946508C136D107C9F70E94F8
:1001100077060C946B080C94000090E0FC01EE58FC
:10012000FF4F2491FC01E255FF4F3491FC01E6564C
:10013000FF4FE491EE23C9F0222339F0233001F17F
:10014000A8F4213019F1223029F1F0E0EE0FFF1F61
:10015000E057FF4FA591B4918FB7F894EC916111DE
:1001600026C030953E233C938FBF08952730A9F0D9
:100170002830C9F0243049F7809180008F7D03C07A
:10018000809180008F7780938000DFCF84B58F7758
:1001900084BDDBCF84B58F7DFBCF8091B0008F779E
:1001A0008093B000D2CF8091B0008F7DF9CF3E2BED
:1001B000DACFCF93DF9390E0FC01E255FF4F24911B
:1001C00086569F4FFC0184918823D1F090E0880FE0
:1001D000991FFC01E859FF4FA591B491FC01E0572C
:1001E000FF4FC591D49161110EC09FB7F8948C91C7
:1001F000E22FE0958E238C932881E223E8839FBF32
:10020000DF91CF9108958FB7F894EC91E22BEC93A6
:100210008FBFF6CFAF92BF92CF92DF92EF92FF9255
:100220000F931F93CF93DF936C017B018B01040F1E
:10023000151FEB015E01AE18BF08C017D10759F0BA
:100240006991D601ED91FC910190F081E02DC601FC
:100250000995892B79F7C501DF91CF911F910F91F6
:10026000FF90EF90DF90CF90BF90AF900895FC018A
:10027000538D448D252F30E0842F90E0821B930B0B
:10028000541710F0CF96089501970895FC01918DB1
:10029000828D981761F0A28DAE0FBF2FB11D5D96B4
:1002A0008C91928D9F5F9F73928F90E008958FEF56
:1002B0009FEF0895FC01918D828D981731F0828D0A
:1002C000E80FF11D858D90E008958FEF9FEF089561
:1002D000FC01918D228D892F90E0805C9F4F821BC5
:1002E00091098F73992708958EE394E00E94680125
:1002F00021E0892B09F420E0822F089580E090E02E
:10030000892B29F00E94740181110C94000008953A
:10031000FC01A48DA80FB92FB11DA35ABF4F2C917A
:10032000848D90E001968F739927848FA689B78971
:100330002C93A089B1898C91837080648C93938D68
:10034000848D981306C00288F389E02D80818F7D0B
:1003500080830895EF92FF920F931F93CF93DF93C3
:10036000EC0181E0888F9B8D8C8D98131AC0E889F1
:10037000F989808185FF15C09FB7F894EE89FF89C0
:100380006083E889F98980818370806480839FBF5E
:1003900081E090E0DF91CF911F910F91FF90EF905E
:1003A0000895F62E0B8D10E00F5F1F4F0F7311276E
:1003B000E02E8C8D8E110CC00FB607FCFACFE889A9
:1003C000F989808185FFF5CFCE010E948801F1CFA8
:1003D000EB8DEC0FFD2FF11DE35AFF4FF0829FB71D
:1003E000F8940B8FEA89FB8980818062CFCFCF930D
:1003F000DF93EC01888D8823B9F0AA89BB89E8894D
:10040000F9898C9185FD03C0808186FD0DC00FB6F2
:1004100007FCF7CF8C9185FFF2CF808185FFEDCF70
:10042000CE010E948801E9CFDF91CF910895089510
:100430002091D2013091D3012817390771F490919E
:10044000D0018091D101981741F0E091D001F0E006
:10045000E057FE4F808190E008958FEF9FEF089561
:100460000895EF92FF920F931F93CF93DF93DC01D8
:100470005C96ED90FC905D97E114F10479F481E0D5
:1004800090E013969C938E93129790E080E0DF911A
:10049000CF911F910F91FF90EF9008955196ED919C
:1004A000FC91529750968C915097982F90950FB73A
:1004B0005E962C915E97122F127021FD6095F89434
:1004C0002081112319F1282B2083E7012197F1F7CF
:1004D00028E0462F50E0308160FF1AC0382B30836F
:1004E000E7012197F1F7BA0175956795215089F7D2
:1004F000112381F08081892380830FBF5C968D91C9
:100500009C910197F1F781E090E0C1CF2923DCCFE6
:100510003923E5CF9081892BEFCF2091D201309103
:10052000D3012817390761F48091D1012091D001BE
:1005300090E0805C9F4F821B91098F7399270895EB
:1005400090E080E008952091D2013091D3012817E6
:100550003907B9F49091D0018091D101981789F0B1
:10056000E091D001F0E0E057FE4F80812091D00172
:1005700030E02F5F3F4F2F7333272093D00190E05F
:1005800008958FEF9FEF0895CF92DF92EF92FF9241
:100590000F931F93CF93DF937C018C01060F171FDE
:1005A000EC016E01CE18DF080C171D0709F43DC0E1
:1005B0002FB7F89480913A0490913B04A0913C04A9
:1005C000B0913D042FBF8093FB049093FC04A09353
:1005D000FD04B093FE0483EF94E00E94A30297FF12
:1005E0002EC02FB7F89480913A0490913B04A091CB
:1005F0003C04B0913D042FBF4091FB045091FC049A
:100600006091FD047091FE04841B950BA60BB70B43
:100610004091F7045091F8046091F9047091FA0444
:1006200084179507A607B707B0F2C601DF91CF91EF
:100630001F910F91FF90EF90DF90CF9008958993D5
:10064000B0CF90E080E00895CF93DF93EC0160E0BD
:100650008E810E948D0061E08E810E948D0060E09D
:100660008E810E948D008BE891E00197F1F7DF9178
:10067000CF910895CF92DF92EF92FF920F931F9345
:10068000CF93DF936C017C0187E0E80EF11CD0E092
:10069000C0E0062F10E0B8010C2E02C075956795DA
:1006A0000A94E2F76170F70181917F010E948D0049
:1006B0002196C430D10579F7C601DF91CF911F9102
:1006C0000F91FF90EF90DF90CF900C942403CF9286
:1006D000DF92EF92FF920F931F93CF93DF93EC0182
:1006E000F62E642F8C810E948D008D818F3F19F032
:1006F00060E00E948D000F2D10E08F8584FF25C0E3
:100700006E0187E0C80ED11CF12CE12CB8010E2C33
:1007100002C0759567950A94E2F76170F6018191C0
:100720006F010E948D00FFEFEF1AFF0A88E0E816C4
:10073000F10461F7CE01DF91CF911F910F91FF90EE
:10074000EF90DF90CF900C942403B80184E075956E
:1007500067958A95E1F7CE010E943A036F2DCE018D
:10076000DF91CF911F910F91FF90EF90DF90CF908D
:100770000C943A0340E0682F8BED94E00C946703EF
:10078000CF93DF93823029F49091EA04986090939C
:10079000EA048093EE041092EF0480E48093F00466
:1007A00080E18093F10480E58093F20461E0809120
:1007B000DF040E94D9008091E0048F3F19F061E0CE
:1007C0000E94D90061E08091E1040E94D900CBED44
:1007D000D4E09E012B5D34408091EA0484FD0BC07F
:1007E00084E090E021962817390744F461E08E8177
:1007F0000E94D900EECF88E090E0F4CF8BE39DE03B
:100800000197F1F760E08091DF040E948D0060E0C5
:100810008091E1040E948D008091E0048F3F19F0E7
:1008200060E00E948D008091EA0484FD39C063E09D
:100830008BED94E00E943A03CBE4D6E4CE0101971D
:10084000F1F763E08BED94E00E943A032197F1F712
:1008500063E08BED94E00E943A0383E592E0019718
:10086000F1F762E08BED94E00E943A038091EA0494
:1008700080620E94BA0384E08093EB048CE00E94C3
:10088000BA0381E00E94BA038BE39FE10197F1F77D
:1008900082E08093EC0486E0DF91CF910C94BA0360
:1008A00080620E94BA038BE496E40197F1F780918D
:1008B000EA0480620E94BA0383E592E00197F1F7AF
:1008C0008091EA0480620E94BA03D0CF9091EE0436
:1008D000891710F08FEF890FE82FF0E0E552FB4FFA
:1008E000848980680C94BA0341E00E94670381E028
:1008F00090E00895FC0101900020E9F73197AF01E5
:10090000481B590BBC018BED94E00C940A011F921B
:100910000F920FB60F9211242F933F938F939F93B3
:10092000AF93BF9380913A0490913B04A0913C0413
:10093000B0913D043091390423E0230F2D3758F551
:100940000196A11DB11D2093390480933A04909320
:100950003B04A0933C04B0933D04809135049091F6
:100960003604A0913704B09138040196A11DB11D41
:100970008093350490933604A0933704B0933804E1
:10098000BF91AF919F918F913F912F910F900FBE8B
:100990000F901F90189526E8230F0296A11DB11DF8
:1009A000D2CF1F920F920FB60F9211242F933F9325
:1009B0004F935F936F937F938F939F93AF93BF9367
:1009C000EF93FF938EE394E00E948801FF91EF91F3
:1009D000BF91AF919F918F917F916F915F914F9157
:1009E0003F912F910F900FBE0F901F9018951F925F
:1009F0000F920FB60F9211242F938F939F93EF9323
:100A0000FF93E0914E04F0914F048081E0915404F3
:100A1000F091550482FD1BC09081809157048F5F37
:100A20008F7320915804821741F0E0915704F0E051
:100A3000E25CFB4F958F80935704FF91EF919F915C
:100A40008F912F910F900FBE0F901F90189580815E
:100A5000F4CF1F920F920FB60F9211242F933F9352
:100A60004F935F936F937F938F939F93AF93BF93B6
:100A7000EF93FF93E091D201F091D301309749F0C9
:100A8000A685B7858585968D91FF14C09C91892395
:100A9000A1F4FF91EF91BF91AF919F918F917F91C1
:100AA0006F915F914F913F912F910F900FBE0F90DB
:100AB0001F9018959C91892361F7A389B4899C9113
:100AC0008589809589238C93868997890197F1F789
:100AD000608D718DA685B785558538E020E0CB0106
:100AE0000197F1F7822F90E095958795282F4C91EB
:100AF000452309F02068315091F7868D81FD2095BE
:100B00008091D10190E001968F7399273091D001A7
:100B1000381799F0A091D101B0E0A057BE4F2C93A7
:100B20008093D101828D938D0197F1F7A389B489C8
:100B30008C919589892B8C93ACCF868D8160868F23
:100B4000F1CF109241041092400488EE93E0A0E0AF
:100B5000B0E08093420490934304A0934404B09384
:100B600045042CE031E030933F0420933E0425EC13
:100B700030E030934B0420934A0424EC30E030936F
:100B80004D0420934C0420EC30E030934F0420932C
:100B90004E0421EC30E0309351042093500422ECB9
:100BA00030E0309353042093520426EC30E030932D
:100BB0005504209354041092570410925804109234
:100BC000590410925A041092F6041092F50480937E
:100BD000F7049093F804A093F904B093FA048AE21E
:100BE00091E09093F4048093F30410920A0510921C
:100BF000090510920C0510920B0510920E0510922B
:100C00000D051092100510920F05609111056E7F71
:100C10006D7F609311056695617081E0682789E0BA
:100C20000E948D0061E089E00E94D900E7EBF0E0CE
:100C3000E491E0930305E3EAF0E0E491F0E0EE0FE5
:100C4000FF1FE057FF4F8591949190930505809386
:100C5000040560E088E00E94D9008091110581FDC3
:100C600004C061E088E00E948D0088E08093FF046A
:100C7000E6EBF0E0E491E0930005E2EAF0E0E491D5
:100C8000F0E0EE0FFF1FEA57FF4F8591949190938C
:100C90000205809301051092DE041092DD048EE1BE
:100CA00091E09093DC048093DB048CE08093DF047C
:100CB0008FEF8093E0048BE08093E10485E08093E4
:100CC000E20484E08093E30483E08093E40482E020
:100CD0008093E5041092E6041092E7041092E80471
:100CE0001092E9041092EA0481E00C94C003789415
:100CF00084B5826084BD84B5816084BD85B5826021
:100D000085BD85B5816085BD80916E0081608093D1
:100D10006E0010928100809181008260809381003A
:100D2000809181008160809381008091800081604A
:100D3000809380008091B10084608093B1008091A5
:100D4000B00081608093B00080917A0084608093CD
:100D50007A0080917A00826080937A0080917A0094
:100D6000816080937A0080917A00806880937A0015
:100D70001092C10082E00E94C00380E40E94BA0386
:100D800090E0E92E91E0F92EF70161917F018BED62
:100D900094E00E947404F8E0EF16F1E0FF06A1F77A
:100DA000E0914E04F0914F0482E08083E0914A0488
:100DB000F0914B041082E0914C04F0914D0480E1DD
:100DC000808310925604E0915204F091530486E01F
:100DD0008083E0915004F091510480818061808390
:100DE000E0915004F0915104808188608083E0910B
:100DF0005004F0915104808180688083E091500418
:100E0000F091510480818F7D808310920E051092A5
:100E10000D0510920C0510920B0510920A05109208
:100E200009058DE991E09093100580930F0590914D
:100E3000FF04963108F047C02DEB30E030930A05EF
:100E4000209309052BE931E030930C0520930B0525
:100E50002CE231E030930E0520930D0520916800BF
:100E600084E0983048F031E09E3008F430E081E0D2
:100E700001C0880F3A95EAF7822B809368002DE62F
:100E800030E0983050F02BE630E09E3030F02CE629
:100E900030E0963110F030E020E0309307052093E9
:100EA0000605292F30E0983008F0CFC081E001C05E
:100EB000880F9A95EAF78093080580910F05909125
:100EC00010050197F1F780910D0590910E05892B82
:100ED00049F1E091D201F091D30124E0E33FF20720
:100EE00009F1309739F0A389B4899C91858980955F
:100EF00089238C93809111058E7F80931105109228
:100F0000D1011092D00183EF94E09093D3018093AC
:100F1000D201E0910605F0910705808190910805C6
:100F2000892B808380E0C82E80E0D82E83EF94E068
:100F30000E948D02892B09F495C080E00E9466040E
:100F400088E391E00E947A0460E08BED94E00E94D7
:100F5000740482E491E00E947A0481E00E946604B5
:100F600089E491E00E947A0483EF94E00E94A30256
:100F70008093D40183EF94E00E94A302F82E83EFC4
:100F800094E00E94A302DF2DE0E0CE2F7E01E82A4C
:100F9000F92A6E2D8BED94E00E947404F092D50135
:100FA000E092D60166E070E087ED91E00E94C40215
:100FB00083EF94E00E94A302F82E83EF94E00E9456
:100FC000A3021F2D00E07801E82AF92AF092DD0142
:100FD000E092DE01B7018FED91E00E94C40283EF41
:100FE00094E00E94A302FCE0EF0EF11CF701EC522A
:100FF000FE4F808380E00E94660483E591E00E94BA
:101000007A0481E00E94660460E08BED94E00E9427
:10101000740484E691E00E947A04A70164ED71E013
:101020008EE394E00E940A0161E083EF94E00E9465
:101030003102C114D10409F479CF0E9474018823CC
:1010400009F474CF0E94000071CF9E3040F4285004
:10105000310981E001C0880F2A95EAF72CCF2E5084
:101060003109F7CF80E00E94660440E150E06DE670
:1010700071E08BED94E00E940A0181E00E94660419
:1010800040E150E06EE771E08BED94E00E940A01D0
:10109000D0CF8AE291E09093F4048093F30480919E
:1010A000D2019091D301835F944071F4E0910605E1
:1010B000F0910705908180910805809589238083B0
:1010C0001092D3011092D2010895EE0FFF1F0590E8
:1010D000F491E02D099410E0C2E6D0E004C0FE01D6
:1010E0000E9465082196C336D107C9F7F894FFCF4F
:1010F0000204000E1111110E00000000AA010A01E5
:101100003701F701680146015A010000000074042C
:101110000A01210317020000000031020A01210325
:1011200030028D02A30218025472616E736D6973EE
:1011300069006E202020202000637572736F2E2EB0
:101140002E200045737461646F20646520656E6CA9
:10115000616365007074696D6F2E2E2E00204573DB
:10116000706572616E646F207472616D6100202021
:1011700020202020202020202020202020200000AF
:00000001FF
